:020000040000FA
:100000000C945D000C9485000C9485000C94850084
:100010000C9485000C9485000C9485000C9485004C
:100020000C9485000C9485000C9485000C94B50309
:100030000C9485000C9485000C9485000C9485002C
:100040000C9413030C9485000C9483030C945D03AF
:100050000C9485000C9485000C9485000C9485000C
:100060000C9485000C9485000000000024002700FB
:100070002A0000000000250028002B0004040404CE
:100080000404040402020202020203030303030342
:10009000010204081020408001020408102001021F
:1000A00004081020000000080002010000030407FB
:1000B0000000000000000000710411241FBECFEFFB
:1000C000D8E0DEBFCDBF15E0A0E0B1E0E6EFFDE097
:1000D00002C005900D92A635B107D9F726E0A6E536
:1000E000B5E001C01D92A533B207E1F710E0CDE500
:1000F000D0E004C02197FE010E94F306CC35D10761
:10010000C9F70E94D6040C94F9060C94000090E004
:10011000FC01EC55FF4F2491FC01E057FF4F349157
:10012000FC01E458FF4FE491EE23C9F0222339F09B
:10013000233001F1A8F4213019F1223029F1F0E047
:10014000EE0FFF1FEE58FF4FA591B4918FB7F894B3
:10015000EC91611126C030953E233C938FBF0895EA
:100160002730A9F02830C9F0243049F78091800069
:100170008F7D03C0809180008F7780938000DFCFD8
:1001800084B58F7784BDDBCF84B58F7DFBCF809125
:10019000B0008F778093B000D2CF8091B0008F7D78
:1001A000F9CF3E2BDACF3FB7F89480915D0590915F
:1001B0005E05A0915F05B091600526B5A89B05C0BE
:1001C0002F3F19F00196A11DB11D3FBFBA2FA92FD6
:1001D000982F8827BC01CD01620F711D811D911DD3
:1001E00042E0660F771F881F991F4A95D1F708953F
:1001F0008F929F92AF92BF92CF92DF92EF92FF9237
:100200004B015C010E94D3006B017C010E94D30072
:100210006C197D098E099F09683E7340810591051F
:10022000A8F321E0821A9108A108B10888EEC80E4F
:1002300083E0D81EE11CF11C81149104A104B104D7
:1002400029F7FF90EF90DF90CF90BF90AF909F90F5
:100250008F900895AF92BF92CF92DF92EF92FF926C
:100260000F931F93CF93DF936C017B018B01040FDE
:10027000151FEB015E01AE18BF08C017D10759F07A
:100280006991D601ED91FC910190F081E02DC601BC
:100290000995892B79F7C501DF91CF911F910F91B6
:1002A000FF90EF90DF90CF90BF90AF900895FC014A
:1002B000538D448D252F30E0842F90E0821B930BCB
:1002C000541710F0CF96089501970895FC01918D71
:1002D000828D981761F0A28DAE0FBF2FB11D5D9674
:1002E0008C91928D9F5F9F73928F90E008958FEF16
:1002F0009FEF0895FC01918D828D981731F0828DCA
:10030000E80FF11D858D90E008958FEF9FEF089520
:10031000FC01918D228D892F90E0805C9F4F821B84
:1003200091098F739927089581E695E00E948801CD
:1003300021E0892B09F420E0822F089580E090E0ED
:10034000892B29F00E94940181110C9400000895DA
:10035000FC01A48DA80FB92FB11DA35ABF4F2C913A
:10036000848D90E001968F739927848FA689B78931
:100370002C93A089B1898C91837080648C93938D28
:10038000848D981306C00288F389E02D80818F7DCB
:1003900080830895EF92FF920F931F93CF93DF9383
:1003A000EC0181E0888F9B8D8C8D98131AC0E889B1
:1003B000F989808185FF15C09FB7F894EE89FF8980
:1003C0006083E889F98980818370806480839FBF1E
:1003D00081E090E0DF91CF911F910F91FF90EF901E
:1003E0000895F62E0B8D10E00F5F1F4F0F7311272E
:1003F000E02E8C8D8E110CC00FB607FCFACFE88969
:10040000F989808185FFF5CFCE010E94A801F1CF47
:10041000EB8DEC0FFD2FF11DE35AFF4FF0829FB7DC
:10042000F8940B8FEA89FB8980818062CFCFCF93CC
:10043000DF93EC01888D8823B9F0AA89BB89E8890C
:10044000F9898C9185FD03C0808186FD0DC00FB6B2
:1004500007FCF7CF8C9185FFF2CF808185FFEDCF30
:10046000CE010E94A801E9CFDF91CF910895DC0170
:10047000EC91EC3090F511968C91119728E830E0D2
:10048000281B310987FD3395220F331F220F331F9D
:100490006217730784F012968C9128E532E0281BCE
:1004A000310987FD3395220F331F220F331F621747
:1004B00073070CF49B0122503109220F331F4FB7F1
:1004C000F8948E2F90E0FC01EE0FFF1FE80FF91F4C
:1004D000E250FA4F328321834FBF0895FC0101900F
:1004E0000020E9F73197AF01481B590BBC0181E6A9
:1004F00095E00C942A018F929F92AF92BF920F9336
:100500001F93CF93DF93CDB7DEB7A1970FB6F894C3
:10051000DEBF0FBECDBF19A2423008F44AE08E0103
:100520000F5D1F4F842E912CB12CA12CA50194019D
:100530000E94C506E62FB901CA01EA30F4F4E05D75
:10054000D801EE938D01232B242B252B79F790E0F6
:1005500080E0109719F0CD010E946E02A1960FB6AF
:10056000F894DEBF0FBECDBFDF91CF911F910F91E9
:10057000BF90AF909F908F900895E95CE1CFCF93AB
:10058000DF930E946E02EC0186E291E00E946E020F
:100590008C0F9D1FDF91CF91089589E291E00E9419
:1005A000BF028DE791E00E94BF0283EB91E00E94C1
:1005B000BF0285E092E00E94BF0283E592E00E94C4
:1005C000BF0281E992E00E94BF0285EE92E00E94A4
:1005D000BF0289E093E00E94BF0286E293E00E949E
:1005E000BF0283E693E00E94BF0280E993E00E948D
:1005F000BF0286EB93E00E94BF028FEE93E00C9463
:10060000BF02CF93DF93EB010E946E026881798174
:1006100090E080E04AE00E947B0286E291E0DF9178
:10062000CF910C946E021F920F920FB60F9211246D
:100630002F933F938F939F93AF93BF9380915905CF
:1006400090915A05A0915B05B0915C0530915805D9
:1006500023E0230F2D3758F50196A11DB11D2093DE
:1006600058058093590590935A05A0935B05B09364
:100670005C0580915D0590915E05A0915F05B0914C
:1006800060050196A11DB11D80935D0590935E05E7
:10069000A0935F05B0936005BF91AF919F918F913B
:1006A0003F912F910F900FBE0F901F90189526E845
:1006B000230F0296A11DB11DD2CF1F920F920FB62C
:1006C0000F9211242F933F934F935F936F937F93D8
:1006D0008F939F93AF93BF93EF93FF9381E695E042
:1006E0000E94A801FF91EF91BF91AF919F918F91CF
:1006F0007F916F915F914F913F912F910F900FBE1E
:100700000F901F9018951F920F920FB60F92112401
:100710002F938F939F93EF93FF93E0917105F09147
:1007200072058081E0917705F091780582FD1BC00C
:10073000908180917A058F5F8F7320917B0582175E
:1007400041F0E0917A05F0E0EF59FA4F958F8093F0
:100750007A05FF91EF919F918F912F910F900FBE8E
:100760000F901F9018958081F4CF1F920F920FB6B3
:100770000F9211242F933F934F935F936F937F9327
:100780008F939F93AF93BF93CF93DF93EF93FF9399
:1007900080915605C0912206D0E087FF24C01092B8
:1007A000850010928400809156058F5F80935605D6
:1007B00080915605082E000C990B8C179D0724F488
:1007C000809156058C30C4F1809184009091850011
:1007D000049680349C4908F47AC0809184009091FA
:1007E0008500049676C080915605082E000C990B62
:1007F0008C179D07C4F6E09156058E2FEE0F990BCE
:10080000FC01EE0FFF1FE80FF91FE250FA4F808145
:1008100086FFC9CFE09156058E2FEE0F990BFC0194
:10082000EE0FFF1FE80FF91FE250FA4F808160E0E2
:100830008F730E948700B7CF20918400309185008C
:10084000E09156058E2FEE0F990BFC01EE0FFF1F66
:10085000E80FF91FE250FA4F81819281820F931FB6
:100860009093890080938800E09156058E2FEE0FBB
:10087000990BFC01EE0FFF1FE80FF91FE250FA4F32
:10088000808186FF11C0E09156058E2FEE0F990BE7
:10089000FC01EE0FFF1FE80FF91FE250FA4F8081B5
:1008A00061E08F730E948700FF91EF91DF91CF91FC
:1008B000BF91AF919F918F917F916F915F914F9178
:1008C0003F912F910F900FBE0F901F90189580E4CD
:1008D0009CE990938900809388008FEF8093560560
:1008E000E3CF109264051092630588EE93E0A0E0D8
:1008F000B0E08093650590936605A0936705B0937B
:10090000680588E191E0909362058093610585EC2C
:1009100090E090936E0580936D0584EC90E0909349
:10092000700580936F0580EC90E090937205809342
:10093000710581EC90E0909374058093730582ECCF
:1009400090E0909376058093750586EC90E0909307
:1009500078058093770510927A0510927B051092A6
:100960007C0510927D05E3E2F6E025E336E04FEFEB
:1009700068EB7BE0809122068C30B0F491E0980F18
:1009800090932206808390E0DC01AA0FBB1FA80F82
:10099000B91FA250BA4F12967C936E93119733965B
:1009A0002E173F0739F708954083F9CF789484B51F
:1009B000826084BD84B5816084BD85B5826085BD5B
:1009C00085B5816085BD80916E00816080936E00E9
:1009D00010928100809181008260809381008091DB
:1009E000810081608093810080918000816080938C
:1009F00080008091B10084608093B1008091B0004C
:100A000081608093B00080917A00846080937A0046
:100A100080917A00826080937A0080917A00816070
:100A200080937A0080917A00806880937A00109297
:100A3000C100E0917105F091720582E08083E09140
:100A40006D05F0916E051082E0916F05F0917005D3
:100A500080E1808310927905E0917505F09176052B
:100A600086E08083E0917305F09174058081806158
:100A70008083E0917305F0917405808188608083A4
:100A8000E0917305F0917405808180688083E09126
:100A90007305F091740580818F7D8083C3E2D6E079
:100AA0000EE011E05CE0F52E62E0E62E88818C30ED
:100AB00008F069C0F8013081832F90E0FC01E05715
:100AC000FF4F249184589F4FFC018491882399F013
:100AD00090E0880F991FFC01E859FF4FA591B49150
:100AE000FC01EE58FF4F859194918FB7F894EC91EB
:100AF0002E2B2C938FBF8881482F50E0FA01EE0FE8
:100B0000FF1FE40FF51FE250FA4F3F739081907C76
:100B1000932B908319821A826F2D0E94E7068F9D76
:100B2000B001112430E020E0AB01420F531FFA0165
:100B3000EE0FFF1FE40FF51FE250FA4F908196FD74
:100B400015C02F5F3F4F2C30310571F781110EC05A
:100B500010928000E0928100109285001092840033
:100B6000B19A80916F00826080936F00E8818E2F30
:100B700090E0FC01EE0FFF1FE80FF91FE250FA4F63
:100B80008081806480836CED75E0CE010E94370225
:100B90006AE070E080E090E00E94F80023960F5F2A
:100BA0001F4FF6E0C533DF0709F080CF0E94CD026A
:100BB00013E0C0E0D0E005E023E0F22E32E0E32EC7
:100BC00044E0D42ECC24C39481E695E00E946601D3
:100BD000853309F465C02CF5823309F453C0ACF4B5
:100BE000803309F43FC0813309F445C062E370E00B
:100BF00080E090E00E94F800209731F30E94940179
:100C0000882311F30E940000DFCF833309F441C031
:100C1000843361F7D09257056AE071E08DE894E083
:100C200027C0883609F443C094F48C3309F455C0C6
:100C30006091000170910101665F7F4F8E33B1F6C4
:100C40007093010160930001809157053EC0803789
:100C500009F44AC0833709F478C0893639F60E940E
:100C6000CD02C4CF1092570562E071E08DE194E0AF
:100C70000E940103BBCFC092570564E071E089E395
:100C800094E0F6CFE092570566E071E085E594E0E8
:100C9000EFCFF092570568E071E081E794E0E8CF8C
:100CA000009357056CE071E089EA94E0E1CF809110
:100CB0005705E82FF0E0EE0FFF1FEE5FFE4F60815B
:100CC00071817093010160930001819FC001112423
:100CD0008D5D994F0E94370289CF6091000170911C
:100CE00001016A507109ACCF80E391E00E94BF021C
:100CF00085EC94E00E94BF0262E071E08DEF94E029
:100D00000E94010364E071E087E095E00E94010326
:100D100066E071E081E195E00E94010368E071E026
:100D20008BE195E00E9401036AE071E085E295E0C5
:100D30000E9401036CE071E08FE295E00E940103E4
:100D400087E992E00E94BF0251CFE0915705F0E0A1
:100D5000EE0FFF1FEE5FFE4F8091000190910101A9
:100D60009183808389E395E00E946E02609157052C
:100D700070E090E080E04AE00E947B0260E071E079
:100D800086E495E00E94010331CFA1E21A2EAA1B4E
:100D9000BB1BFD010DC0AA1FBB1FEE1FFF1FA2172B
:100DA000B307E407F50720F0A21BB30BE40BF50B28
:100DB000661F771F881F991F1A9469F760957095B1
:100DC000809590959B01AC01BD01CF010895991BC1
:100DD00079E004C0991F961708F0961B881F7A9532
:100DE000C9F780950895EE0FFF1F0590F491E02D4F
:100DF0000994F894FFCFDC05DC05DC05DC05DC0597
:100E0000DC05DC0502030405060700000000CA013A
:100E10002A0157011702880166017A010D0A000AAA
:100E20003D3D3D3D3D3D3D3D3D3D3D3D3D3D3D3DF2
:100E30003D3D3D3D3D3D3D3D3D3D3D3D3D3D3D3DE2
:100E40003D3D3D3D3D3D3D3D3D3D3D3D3D3D3D3DD2
:100E50003D3D3D3D3D3D3D3D3D3D3D3D3D3D3D3DC2
:100E60003D3D3D3D3D3D3D3D3D3D3D3D3D3D3D3DB2
:100E70003D3D002020202020202020202020202058
:100E80002020202020202020202020202020202062
:100E90003A3A506C6174666F726D2043616C69629E
:100EA000726174696F6E3A3A00436F6D6D616E6482
:100EB00073202D20303A20536572766F20302C201D
:100EC000313A20536572766F20312C20323A20530C
:100ED0006572766F20322C20333A20536572766F1C
:100EE00020332C20343A20536572766F20342C2026
:100EF000353A20536572766F20350020202020205F
:100F0000202020202D20683A20486F6D6520506FEA
:100F1000736974696F6E2C203C3A20446563726576
:100F20006173652050572C203E3A20496E637265EC
:100F30006173652050572C20703A205072696E748E
:100F400020486F6D65205057002020202020202051
:100F500020202D20733A205361766520486F6D65FF
:100F600020505720666F722063757272656E742010
:100F7000736572766F2C20693A20496E73747275AE
:100F80006374696F6E73003D3D3D3D3D3D3D3D3DAC
:100F90003D3D3D3D3D3D3D3D3D3D3D3D3D3D3D3D81
:100FA0003D3D3D3D3D3D3D3D3D3D3D3D3D3D3D3D71
:100FB0003D3D3D3D3D3D3D3D3D3D3D3D3D3D3D3D61
:100FC0003D3D3D3D3D3D3D3D3D3D3D3D3D3D3D3D51
:100FD0003D3D3D3D3D3D3D3D3D0A00466F6C6C6FE6
:100FE0007720746869732070726F6365737320660D
:100FF0006F72206561636820736572766F3A0020B6
:101000002020202D2053656C656374207468652052
:10101000736572766F2028302D352900202020201E
:101020002D20456E746572206820746F206D6F7678
:10103000652074686520736572766F20746F207404
:1010400068652063757272656E7420686F6D6520C7
:10105000706F736974696F6E00202020202D2055F9
:10106000736520746865203C20616E64203E2074A6
:101070006F2061646A7573742074686520706F7383
:101080006974696F6E00202020202D205768656EDE
:10109000206174203930C2B02C20656E74657220D6
:1010A0007320746F20736176652E0A005768656E31
:1010B00020616C6C20736572766F73206861766551
:1010C000206265656E2063616C696272617465643B
:1010D0002C20656E746572207020746F20646973B3
:1010E000706C61790074686520686F6D652070753B
:1010F0006C7365207769647468732028505773296E
:1011000020696E206D6963726F7365636F6E6473BF
:101110002E0A00536572766F20302053656C65632C
:101120007465642C20486F6D652050573A20005339
:101130006572766F20312053656C65637465642C2D
:1011400020486F6D652050573A2000536572766FC6
:1011500020322053656C65637465642C20486F6D84
:10116000652050573A2000536572766F2033205324
:10117000656C65637465642C20486F6D65205057FD
:101180003A2000536572766F20342053656C656396
:101190007465642C20486F6D652050573A200053C9
:1011A0006572766F20352053656C65637465642CB9
:1011B00020486F6D652050573A20002020202020C5
:1011C000202020202020202020202020202020201F
:1011D00020202020202020203A3A43616C6962724E
:1011E0006174656420486F6D652056616C75657328
:1011F0003A3A00536572766F20303A200053657298
:10120000766F20313A2000536572766F20323A2093
:1012100000536572766F20333A2000536572766F03
:1012200020343A2000536572766F20353A200053FF
:101230006176656420536572766F20002050756C6E
:0C12400073652057696474683A20000050
:107E0000112484B714BE81FFF0D085E080938100F7
:107E100082E08093C00088E18093C10086E0809377
:107E2000C20080E18093C4008EE0C9D0259A86E02C
:107E300020E33CEF91E0309385002093840096BBD3
:107E4000B09BFECF1D9AA8958150A9F7CC24DD24C4
:107E500088248394B5E0AB2EA1E19A2EF3E0BF2EE7
:107E6000A2D0813461F49FD0082FAFD0023811F036
:107E7000013811F484E001C083E08DD089C08234E0
:107E800011F484E103C0853419F485E0A6D080C0E4
:107E9000853579F488D0E82EFF2485D0082F10E0AE
:107EA000102F00270E291F29000F111F8ED06801E7
:107EB0006FC0863521F484E090D080E0DECF843638
:107EC00009F040C070D06FD0082F6DD080E0C81688
:107ED00080E7D80618F4F601B7BEE895C0E0D1E017
:107EE00062D089930C17E1F7F0E0CF16F0E7DF06D8
:107EF00018F0F601B7BEE89568D007B600FCFDCFD4
:107F0000A601A0E0B1E02C9130E011968C91119780
:107F100090E0982F8827822B932B1296FA010C0160
:107F200087BEE89511244E5F5F4FF1E0A038BF0790
:107F300051F7F601A7BEE89507B600FCFDCF97BE46
:107F4000E89526C08437B1F42ED02DD0F82E2BD052
:107F50003CD0F601EF2C8F010F5F1F4F84911BD097
:107F6000EA94F801C1F70894C11CD11CFA94CF0C13
:107F7000D11C0EC0853739F428D08EE10CD085E9AC
:107F80000AD08FE07ACF813511F488E018D01DD067
:107F900080E101D065CF982F8091C00085FFFCCF94
:107FA0009093C60008958091C00087FFFCCF809118
:107FB000C00084FD01C0A8958091C6000895E0E648
:107FC000F0E098E1908380830895EDDF803219F02E
:107FD00088E0F5DFFFCF84E1DECF1F93182FE3DFCA
:107FE0001150E9F7F2DF1F91089580E0E8DFEE27F6
:047FF000FF270994CA
:027FFE00040479
:00000001FF
